:020000040800F2
:1000000000D9012015030008A9200008612000087C
:10001000A5200008191F0008EF30000800000000AC
:10002000000000000000000000000000A1290008FE
:10003000811F00080000000069260008B92A000896
:100040002F0300082F0300082F0300082F030008C8
:100050002F0300082F0300082F0300082F030008B8
:100060002F0300082F0300082F0300082F030008A8
:100070002F0300082F0300082F0300082F03000898
:100080002F0300082F0300082F0300082F03000888
:100090002F0300082F0300082F0300082F03000878
:1000A0002F0300082F0300082F0300082F03000868
:1000B0002F0300082F030008252B00082F0300083A
:1000C0002F0300082F0300082F0300082F03000848
:1000D0002F0300083D2D00082F030008C52D000840
:1000E0002F0300082F0300082F0300082F03000828
:1000F0002F0300082F0300082F0300082F03000818
:100100002F030008192800082F0300082F030008F8
:100110002F0300082F0300082F0300085D2B0008A1
:100120002F0300082F0300082F0300082F030008E7
:100130002F0300082F0300082F0300082F030008D7
:100140002F0300082F0300082F0300082F030008C7
:100150002F0300082F0300082F0300082F030008B7
:100160002F0300082F0300082F0300082F030008A7
:100170002F0300082F0300082F0300082F03000897
:100180002F0300082F03000800F002F800F0B2F877
:100190000AA090E8000C82448344AAF10107DA45E2
:1001A00001D100F0A7F8AFF2090EBAE80F0013F082
:1001B000010F18BFFB1A43F001031847F09B000022
:1001C000109C00000A444FF0000C10F8013B13F0A3
:1001D000070408BF10F8014B1D1108BF10F8015BA0
:1001E000641E05D010F8016B641E01F8016BF9D193
:1001F00013F0080F1EBF10F8014BAD1C0C1B09D1EA
:100200006D1E58BF01F801CBFAD505E014F8016B5B
:1002100001F8016B6D1EF9D59142D6D370470000ED
:100220000023002400250026103A28BF78C1FBD8FF
:10023000520728BF30C148BF0B6070476E2900F0DD
:100240005781702900F0A781662907F06687652924
:1002500007F06387672907F06087612907F05F87E8
:1002600003681B0A28BF41F08001692900F004815E
:10027000642900F00181752900F0FE806F2900F0EB
:100280009787782900F07381E92900F03187E42904
:1002900000F02E87F52900F02B87EF2900F09487D6
:1002A000F82900F072810368DB0928BF41F0800162
:1002B000632900F0A086732900F0A586E32901F0E8
:1002C000A781F32901F0AC81002070471FB507F02A
:1002D0001AFF00F087FF04000020002107F070F8EB
:1002E000401C60600020002107F080F8E0601FBD26
:1002F00010B510BD01F02AFA1146FFF7E7FF04F030
:1003000035FA01F048FA03B4FFF7F2FF03BC03F03B
:1003100092FE00000948804709480047FEE7FEE7D3
:10032000FEE7FEE7FEE7FEE7FEE7FEE7FEE7FEE7A5
:1003300004480549054A064B70470000BD2A0008DD
:100340008901000800C7012000D9012000C901204F
:1003500000C90120704710B5044600F099FB006801
:10036000005DC00602D504F1200010BD204610BD7E
:100370001CB50C46064B7B4469460090204600F0B5
:1003800018FE04460020694600F026FE20461CBDEB
:100390005F0C00000FB4044910B503AA029800F0E6
:1003A00037FE10BC5DF814FB040000200FB41CB530
:1003B000084B06AA7B4469460090059800F0F9FDB9
:1003C00004460020694600F007FE20461CBC5DF88C
:1003D00014FB0000210C000070B50446856900681C
:1003E000C10601D5302600E02026C00707D070BD29
:1003F000D4E9012130469047206A401C20626D1EDE
:10040000F6D570BD70B5044685690078C00707D180
:1004100070BDD4E9012120209047206A401C206251
:100420006D1EF6D570BD70B50C460546012A05D087
:100430002878800600D5EA69002302E0012305E060
:100440005B1C934202D2E05C0028F9D1A869E6184F
:10045000C01AA861286A184428622846FFF7BCFF22
:1004600004E0D5E9012114F8010B9047B442F8D318
:100470002846FFF7C7FF70BD2DE9F041064600246E
:1004800010687529314616A510D000F014FB00281D
:1004900002DA404213A507E031688A0701D512A5A8
:1004A00002E0490704D511A5012401E000F00CFB8E
:1004B00000210A2206F1240709E0B0FBF2FCB0FBA0
:1004C000F2F302FB1C00303078541846491C002817
:1004D000F3D123462A463046BDE8F04100F0FDBA8C
:1004E000000000002D0000002B0000002000000094
:1004F00011680268006A530501D508700AE0D30547
:1005000001D5088006E0130603D5C217C1E9000231
:1005100000E0086001207047F0B40D46018809052D
:1005200002D5214C7C4402E01F4C7C440E34002157
:1005300000F1240608E002F00F071209E75D42EA25
:1005400003721B097754491C52EA0307F3D102785E
:100550000023120704D5702D06D009B102231134EF
:100560002246F0BC00F0B9BA01231034F8E770B5A8
:1005700004460D462146106800F0A6FA02462946B8
:100580002046BDE870400023C6E7D21D22F00703D5
:10059000D3E90023C0E70368126843F02003036037
:1005A0000823C3610023B7E7D89400002DE9F05F6A
:1005B000894604464FF0000ADFF874B1FB44C0F8E6
:1005C00020A02046E1688847002874D0252806D05E
:1005D000D4E901219047206A401C2062F1E70026FF
:1005E0005F462046E16888472028054607DB312D15
:1005F00005D2781910F8200C08B10643F1E7B007CE
:1006000001D526F00406C4F81CA00027C4F818A0E1
:100610002A2D09D0284603F007FD38B304EB8708DC
:10062000303DC8F8185019E059F8041B204604EB77
:1006300087029161E1688847012F054618D1E0697A
:10064000002820DA26F020061DE0D8F8180000EB7C
:10065000800005EB40003038C8F818002046E168FB
:100660008847054603F0E0FC0028EED1012F0AD0B0
:100670002E2D08D12046E16888477F1C0546022FB1
:1006800046F02006C4DBA069002803DA404246F0A9
:100690000106A061F00701D026F010066C2D0BD0EA
:1006A000682D09D04C2D39D06A2D35D0742D35D018
:1006B0007A2D33D016E038E0E1682F46204688478F
:1006C000B842054609D16C2F26D04FF48060E1680E
:1006D000064320468847054604E06C2F1AD04FF4A5
:1006E000807006430DB3A5F14100192802D82035CA
:1006F00046F400664A462946204626604E46FFF7E5
:100700009DFD80B101280BD0F61D26F0070000F1F9
:10071000080956E74020E4E78020D8E70020D6E724
:1007200006F104094DE7284652E7206ABDE8F09F2C
:1007300068940000401ECAB210F8011F8A4202D01D
:100740000029F9D10020704730B505460B462A46EE
:1007500013F8014B12F8010B08B1A042F8D01CB1FC
:10076000002802D06D1CF1E7284630BD40EA0103A5
:10077000024630B59B0710D14FF0013400E008C2AB
:1007800008C91D1B9D4315EAC41FF8D013F0FF01D3
:1007900002F8011B0DD01B0AF8E711F8013B002BF2
:1007A00002F8013B05D011F8013B002B02F8013B98
:1007B000F3D130BD10B5431C02E010F8011B71B13C
:1007C0008107FAD14FF0013202C88C1A8C4314EA27
:1007D000C211F9D0C01A0A0603D0C01E10BDC01A3B
:1007E00010BD0A0401D0801E10BD0902FCD0401EBD
:1007F00010BD40EA010370B59B072ED14FF00136C2
:10080000042A2AD308C810C99D1B9D43121F15EA4C
:10081000C61517D0D8B2E1B2401A50EA056110D11E
:1008200098B2A1B2401A50EA05410AD123F07F40A4
:1008300024F07F41401A50EA052102D1180EA0EBA6
:10084000146070BDA342DBD018BA21BA884201D926
:10085000012070BD4FF0FF3070BD0AB9002070BD9F
:1008600010F8013B11F8014B63B1A3420AD1521EAB
:1008700008D010F8013B11F8014B1BB1A34201D184
:10088000521EEDD1181B70BD032A40F2308010F0CB
:10089000030C00F0158011F8013BBCF1020F62441B
:1008A00098BF11F801CB00F8013B38BF11F8013BAC
:1008B000A2F1040298BF00F801CB38BF00F8013B59
:1008C00011F0030300F02580083AC0F0088051F8C9
:1008D000043B083A51F804CBA0E80810F5E7121DD4
:1008E0005CBF51F8043B40F8043BAFF30080D207F3
:1008F00024BF11F8013B11F801CB48BF11F8012BBF
:1009000024BF00F8013B00F801CB48BF00F8012BE1
:10091000704710B5203AC0F00B80B1E81850203A6B
:10092000A0E81850B1E81850A0E81850BFF4F5AF8F
:100930005FEA027C24BFB1E81850A0E8185044BF19
:1009400018C918C0BDE810405FEA827C24BF51F886
:10095000043B40F8043B08BF7047D20728BF31F87A
:10096000023B48BF11F8012B28BF20F8023B48BFCB
:1009700000F8012B70474FF000020429C0F01280EC
:1009800010F0030C00F01B80CCF1040CBCF1020F42
:1009900018BF00F8012BA8BF20F8022BA1EB0C0117
:1009A00000F00DB85FEAC17C24BF00F8012B00F80D
:1009B000012B48BF00F8012B70474FF0000200B533
:1009C000134694469646203922BFA0E80C50A0E872
:1009D0000C50B1F12001BFF4F7AF090728BFA0E820
:1009E0000C5048BF0CC05DF804EB890028BF40F8EC
:1009F000042B08BF704748BF20F8022B11F0804F2E
:100A000018BF00F8012B70474FF0013C50F8042B41
:100A100051F8043B9A4221D1A2EB0C03934313EA11
:100A2000CC1317D150F8042B51F8043B9A4215D13E
:100A3000A2EB0C03934313EACC130BD150F8042B15
:100A400051F8043B9A4209D1A2EB0C03934313EAF9
:100A5000CC13DBD04FF00000704700BFD01A01BAB2
:100A6000B1FA81F101F0180122FA01F0CB40C1F195
:100A70002001DBB2C0B2C01A2CFA01F3D11A9143A3
:100A800011EAC311E6D1704770477047704770474D
:100A900010B500F0A7FB001D10BD00BF25690000C8
:100AA00010B500F0A3FB006810BD10B5044600F0BF
:100AB0009DFB046010BD09684A0501D540B270472E
:100AC000C905FCD500B2704709684A0501D5C0B216
:100AD0007047C905FCD580B270472DE9F0470D4637
:100AE00099469246044600F124080168880604D518
:100AF000E06921F01001216000E00120A84201DD41
:100B0000471B00E00027A1697A1902EB0900081AC7
:100B1000A0612078C00602D42046FFF75DFC0026C5
:100B200008E0D4E901211AF806009047206A401C29
:100B3000761C20624E45F4DB2078C0060AD520469C
:100B4000FFF74AFC06E0D4E9012130209047206AF3
:100B5000401C2062381EA7F10107F4DC07E0D4E94D
:100B6000012118F805009047206A401C2062281EC9
:100B7000A5F10105F3DC2046FFF744FC20780006D0
:100B800002D50220BDE8F0870120FBE770472DE980
:100B9000FF4F0C461E464FF0FF378BB0D2E90001E5
:100BA000DDF860800A908A46C1F30A5505B93D46D2
:100BB000002108464FF00000BAF1000F00F4400099
:100BC00005DA00EB80004FF4400101EA50004FEAE3
:100BD0009059B9F1010F00DDB9460A9850EA4A0070
:100BE0000ED044F61050A5F2FF3545432F14B8F14E
:100BF000000F1ED07542291E1EDDC9F100021CE047
:100C0000B8F1010F4FF0000001D0302103E0F243B2
:100C100005E02154401CB042FBDB3046002200219D
:100C200021540B99C1F80880C1E900200FB0BDE83C
:100C3000F08FBD1B6D1CDEE74A4600DA694206A84C
:100C400000F0F2FC06AB93E8070003AB83E8070073
:100C500050460A9900F0A5FD8DE80700A0F5005068
:100C60001F3800900398002D09DD42F21F014A460B
:100C7000084403A90390684601F004F808E0A0F5D1
:100C800000504A461F3803A90390684601F00EF849
:100C90008DE807000004000C03D04FF0FF3041083E
:100CA00000E01046B8F1000F03D000220092154674
:100CB0001EE0751E05D400F09DFA303262556D1E9F
:100CC000F9D5B3460122084302D000227F1C04E07C
:100CD0002078302801D100227F1E002A099786D073
:100CE0001DE0112D07DA00F085FA303262556D1CD7
:100CF00050EA0102F5D1084302D00098C8B10EE0D5
:100D00000021681E05E0235C625C63542254401E8F
:100D1000491C8142F7DBAB46A81B401E099000200E
:100D200004F80B000B98099AC0F80880C0E9002B62
:100D30007CE711264FF0000859E72DE9F04F88466F
:100D40000446D21D22F0070191B0D1E90001CDE99E
:100D50000A0102F0CEF902460B98C00F01D02D20F7
:100D600007E02068810701D52B2002E0202101EA5D
:100D7000C000032A099001D0072A05DB034641463B
:100D8000204600F0FBFB0BE12078800601D5E069EE
:100D900000E00620B8F1650F814606D0B8F1660F75
:100DA00018D0B8F1670F70D131E00020B9F1110F00
:100DB000009001DB112301E009F101030AAA01A956
:100DC0000CA8FFF7E4FEDDE90C70002609F101052F
:100DD000834647E001204B4600904FF000470AAAA7
:100DE00001A90CA8FFF7D3FEDDE90DB00C995D4613
:100DF000002610B909F101000D18B9EB050003D464
:100E0000C0F1FF3609F10105A5EB09002BE0B9F1AE
:100E1000010F01DA4FF001090020B9F1110F009024
:100E2000484601DD112300E003460AAA01A90CA8E7
:100E3000FFF7ADFEDDE90C704D46002683462078B5
:100E400000070AD4AB4500DA5D4601A8012D04DD98
:100E5000411911F8011C302907D04F4502DA17F16A
:100E6000040F04DA012082460FE06D1EEEE7002F2A
:100E700002DCED1B3E4403E0781CA84200DD7D1C33
:100E8000B81B00F1010A4FF000472078000703D497
:100E9000AA4501DB4FF0FF3A0021B7F1004F0DF1F9
:100EA00043088DF8431024D002202B23002F01DAB1
:100EB0007F422D230A21021EA0F1010000DC5FB158
:100EC00097FBF1FC97FBF1F201FB1C7C17460CF140
:100ED000300C08F801CDEEE7A8F10100037021887D
:100EE000090501D5452100E06521A0F1010800F8C0
:100EF000011C09980FA9A1EB0807FF1D00B10120F3
:100F0000411901EBEA70A1693844081A401EA0613A
:100F10002078C00602D42046FFF75EFA099828B16F
:100F2000D4E901219047206A401C20622078C00645
:100F300022D52046FFF750FA1EE0002E04DBB34511
:100F400002DD01A8805D00E03020D4E90121904756
:100F5000206A401C2062761CAAF101005FEA000AA8
:100F60000AD100F03FF9C0680168405CD4E9012172
:100F70009047206A401C2062281EA5F10105DCDC98
:100F800007E0D4E9012118F8010B9047206A401CC2
:100F90002062381EA7F10107F3DC2046FFF732FA82
:100FA000032011B043E6000001694A1C0261087881
:100FB000704700B58FB0CDE9013100210591054999
:100FC0007944CDE9031011466846FFF7EFFA0FB0F8
:100FD00000BD0000E5FFFFFF0A6802F8010B0A6090
:100FE000704710B5436913B1AFF3008001E0FFF71C
:100FF0001AFA012010BD127800F124010A700022B3
:101000004A700122EDE711684FF0FF32E9E7000076
:10101000074B70B50D467B44FFF7CBFF04462846CF
:1010200000F070FB10B14FF0FF3070BD204670BD76
:101030000B3600002DE9FF5F15468A460446DFF8AF
:10104000AC80F8440027D8E900103E46CDE90010F6
:1010500010E03AF816106A4602A800F057FB411C4F
:1010600007D02178890603D5E269391891420DD855
:101070000744761C2078800602D5E069B84205DD79
:10108000AE42E6DB3AF816000028E2D1A069C01BA8
:10109000A0612046FFF7A0F9D8E90010CDE90010C3
:1010A000002017E03AF818106A4602A800F02EFB5C
:1010B000B0F1FF3F81460BD000250DF1080B05E094
:1010C000D4E901211BF8050090476D1C4D45F7D36D
:1010D00008F10100B0428046E4DB206A3844206217
:1010E0002046FFF78FF9BDE8FF9F0000828A0000CD
:1010F0002DE9F0418046D21D22F007020025D2E9F9
:101100000002F52915A614D0011E72F1000106DABD
:101110000023D0EB030063EB020211A608E0D8F82D
:1011200000108B0701D50FA602E0490701D50EA6D6
:1011300001251146002408F1240704E000F05AF8C4
:1011400030323A55641C50EA0102F7D12B46324640
:1011500021464046BDE8F041FFF7BFBC000000005B
:101160002D0000002B0000002000000030B4002102
:1011700000F1240408E002F00705D208303542EA05
:101180004372DB086554491C52EA0305F3D1046835
:10119000002310A2250708D504F020040C4304D036
:1011A000C46901230CA2641EC46130BCFFF795BC66
:1011B00010B5044621461068FFF786FC024620461B
:1011C000BDE810400023D1E7D21D22F00701D1E98C
:1011D0000023CBE70000000030000000004870470B
:1011E000A0C6012000487047C0C6012000487047D3
:1011F000A0C6012030B5B0F10A024FEA900E71F19D
:1012000000034EEA817EB0EB0E0061EB91014FEAE4
:10121000101E4EEA017E10EB0E0041EB11114FEA59
:10122000102E4EEA016E10EB0E0041EB11214FEA39
:10123000104E4EEA014E10EB0E0041EB11414018EA
:1012400041F100014FEAD00040EA41704FEAD1017C
:1012500010EB80054FEA810444EA907444EB0104EA
:101260006D1944EB0404521BA3414FF0000348BF27
:101270000A3200D530BD401C41F1000130BD0000F4
:101280002DE9F04F04460D46D21D22F0070089B02B
:10129000D0E9009248461746394601F02AFF024637
:1012A000F80F01D02D2307E02068810701D52B23FB
:1012B00002E0202101EAC0038DF820300BB10120AB
:1012C00000E00020032A824601D0072A04DB2946D9
:1012D000204600F053F93DE12078800601D40D2529
:1012E00000E0E569C7F30A560D2D49DA00214FEAFF
:1012F000175B08464FF00000002F00F4400007DAAB
:1013000000EB80004FF4400100EBD07001EA600078
:101310008115012901DD4FF0FF3100224FEA850CD4
:10132000BCF1180F06D31346ACF118004FF08052F1
:10133000C24003E04FF4801323FA0CF30CF10C0CC1
:10134000BCF1200F04D3ACF1200C09FA0CF001E041
:1013500007FA0CF000294FF0004801DD18B90FE042
:101360000ED140450CD319EB02095F4121B940452C
:1013700002D19F4329EA0209BBEB175F00D0761C1C
:101380002088000502D57B48784402E079487844FB
:10139000193808AA302302F80A30037C0AF1010147
:1013A000002E0AF1020A53546A4602DC4FF0300163
:1013B00001E04FF031014FF001088DF8001002D02C
:1013C000A6F2FF3603E059EA470100D06A4E002D2D
:1013D00002DC2178090704D54FF002082E218DF890
:1013E0000110C44600210BE0C7F303433F01C35C77
:1013F000491C6D1E02F80830052908F1010801DAC0
:10140000002DF1DC00210CE000EB1973491C1B7866
:101410006D1E082902F808304FEA091908F1010881
:1014200001DA002DF0DC2178890602D514E0A8F15C
:101430000108E04505DD02EB080111F8011C302927
:10144000F5D0B8F1000F07DD02EB080111F8011C1F
:101450002E2901D1A8F10108002D05DD3E2102F859
:1014600008106D1E08F10108407C002E02F80800EB
:1014700008F1010804DA2D20764202F8080002E0A3
:101480002B2002F808000A214FF47A70864208F1F6
:1014900001080BDB96FBF0F3303302F8083096FBC3
:1014A000F0F308F1010800FB136601E0642E0CDB89
:1014B000642096FBF0F3303302F8083096FBF0F32B
:1014C00008F1010800FB136601E00A2E06DB96FB1B
:1014D000F1F0303002F8080008F1010896FBF1F055
:1014E00001FB1060303002F80800A16908F1010822
:1014F00008EB050202EB0A00081AA0612078C0067A
:1015000002D42046FEF768FF216A08AE01EB0A000C
:10151000206204E0D4E9012116F8010B9047BAF1EA
:10152000010AF7D22078C00602D52046FEF754FF04
:101530006E4609E016F8010B3E280FD0D4E90121D0
:101540009047206A401C2062B8F10108F2D2204680
:10155000FEF758FF09B00320BDE8F08F206A284449
:10156000206203E0D4E90121302090476D1EEBD3C7
:10157000F8E700005F87000002FCFFFF2DE9F04163
:101580001F46044603260168072A01F4006004DBB5
:1015900008B116A505E016A503E008B115A500E001
:1015A00015A521F010002060A069C01EA0610FB138
:1015B000401EA0612046FEF70FFF4FB1D4E9012184
:1015C00038469047206A401C2062C01C206206E01A
:1015D000206AFAE7D4E9012115F8010B9047761E3D
:1015E000F8D22046FEF70EFFBDE8F0814E414E00D6
:1015F0006E616E00494E4600696E660010B5436923
:1016000013B1AFF3008001E0FFF714FD012010BD1E
:10161000128800F1240182840022C2840122EDE7B5
:1016200011684FF0FF32E9E72DE9F0478146164691
:101630008AB0334878440DC88DE80D0030487844AE
:10164000801C03AC0DC884E80D0041F69B300844B3
:10165000372190FBF1F290FBF1F5A5F1800501FB3C
:1016600012041B3C02D56442012000E00020DFF898
:1016700090A080460027FA44AAF1BE0A0DE0E007D8
:1016800009D03246684607EB47010AEB810100F0BA
:101690000DFB8DE8070064107F1C002CEFD1184F64
:1016A0007F44AC3F18E0E80714D007EB04100DF1BD
:1016B000180A90E80E008AE80E00C068F04201D1D6
:1016C00098190890324606A903A800F0EFFA03AB78
:1016D00083E807006D10641C002DE4D13246694692
:1016E000B8F1000F03A802D000F0CCFA01E000F03E
:1016F000DDFAC9E90001C9F808200AB0BDE8F087A1
:1017000044850000007B00F08000704770B51646ED
:101710000C460546FFF7BCF9036893F80101012860
:1017200006D0FF2C0FD8185D68B101202C7070BD59
:10173000D3F807013246214603F207130344284633
:10174000BDE8704018474FF0FF3070BD7546FFF799
:1017500045FDAE4605006946534620F00700854624
:1017600018B020B5FEF7E4FDBDE820404FF00006BC
:101770004FF000074FF000084FF0000B21F0070179
:10178000AC46ACE8C009ACE8C009ACE8C009ACE8BC
:10179000C0098D4670470446AFF300802046FEF72F
:1017A000B2FD5FEA400C08BF91F0000F4FEA8C23B6
:1017B0004FEAC12243EA51514FEA1C5018BF00F5CD
:1017C000F0404FEA300018BF41F000415FEA6C5C26
:1017D00000F02980BCF1FF3F08BF40F08040704717
:1017E000130C06BF12044FF0100C4FF0000C130E38
:1017F00004BF12020CF1080C130F04BF12010CF10C
:10180000040C930F04BF92000CF1020CD30F04BF21
:1018100052000CF1010C11464FF00002A0F11F0024
:10182000A0EB0C00704711F0004F08BF704731F07B
:1018300000413FF4D5AF0B0C06BF09044FF0100C6C
:101840004FF0000C0B0E04BF09020CF1080C0B0F3B
:1018500004BF09010CF1040C8B0F04BF89000CF1CB
:10186000020CCB0F04BF49000CF1010CCCF120039A
:10187000A0EB0C0022FA03F302FA0CF241EA030196
:1018800000F10100704720F07F4C80EA030023F054
:101890007F47ACEB070303F57C5300F0004003F1F6
:1018A000FF032DE980494FEA154B09B44FEA144371
:1018B00025EA0B4E24EA03480FF2042606EB132711
:1018C00049083E785FEA320203FB0667C7F5000766
:1018D00007FB06F64FEA54374FEAD64606F10206F2
:1018E00007FB066CCCF1005C4FEA1C472CEA074C66
:1018F00007FB06F40CFB06F504EB15464FEA9616BB
:1019000034BF00204FF000404FEAD13706FB07FC00
:101910004FEA1C4C0CFB0BF7D21B03FB0CF761EBE3
:1019200007010CFB0EF7B0EB074072EB17420CFB04
:1019300008F734BFA2EB0742B2EB074261EB174155
:101940004FEA0C444FEA910706FB07FC4FEA1C4C98
:101950000CFB0BF7B0EBC74072EB573203FB0CF7F5
:1019600034BFA2EBC742B2EBC74261EB57310CFB6D
:101970000EF7B0EBC70072EB57720CFB08F734BFE1
:10198000A2EBC702B2EBC70261EB5771039F4FEAAC
:10199000816141EA921104EBCC044FEAD1374FEA5E
:1019A000826206FB07FC42EA90124FEA80604FEA2F
:1019B0001C4C0CFB0BF7D21B03FB0CF761EB070174
:1019C0000CFB0EF7B0EB074072EB17420CFB08F76D
:1019D00034BFA2EB0742B2EB074261EB17414FEA7B
:1019E0008C554FEA910704EB9C2406FB07FC4FEA59
:1019F0001C4C0CFB0BF7B0EBC74072EB573203FBF0
:101A00000CF734BFA2EBC742B2EBC74261EB5731D0
:101A10000CFB0EF7B0EBC70072EB57720CFB08F72C
:101A200034BFA2EBC702B2EBC70261EB577115EBF3
:101A30004C254FEA816141EA92114FEA82624FEAF6
:101A4000D13742EA901206FB07FC44F100044FEA4A
:101A500080604FEA1C4C0CFB0BF7D21B03FB0CF70E
:101A600061EB07010CFB0EF7B0EB074072EB17427E
:101A70000CFB08F734BFA2EB0742B2EB074261EB65
:101A8000174115EB1C154FEA813141EA92414FEAAB
:101A9000823242EA90424FEA80304FEA0C7644F1BB
:101AA000000448EA03434EEA0B484FF0000EB2EB45
:101AB000080C71EB030724BF624639464EEB0E0E4D
:101AC0004FF0000B0018524149414BEB0B0BB2EBAE
:101AD000080C71EB03077BF1000B24BF624639460B
:101AE0004EEB0E0E4FF0000B0018524149414BEBEC
:101AF0000B0BB2EB080C71EB03077BF1000B24BF5F
:101B0000624639464EEB0E0E51EA020718BF46F008
:101B1000010616EB0E7655F1000254F1000103D5D3
:101B2000BDE88901BDE80088BDE88901BDE800483D
:101B3000B619524141EB0101A3F1010370478080C6
:101B40007F7E7D7C7B7A7978777676757473727117
:101B500071706F6E6E6D6C6C6B6A6A6968686766CF
:101B600066656464636362616160605F5F5E5E5D61
:101B70005D5C5C5B5B5A5A595958585757565655D5
:101B800055555454535352525251515050504F4F37
:101B90004F4E4E4D4D4D4C4C4C4B4B4B4A4A4A4987
:101BA00049494848484747474746464645454544CA
:101BB0004444444343434342424242414141002B57
:101BC00026D4770021D01CB54FEA370703B44FF075
:101BD00010004FF010014FF000000FBCBDE81040A6
:101BE0000BF1010BBBF1010F08BF5FEA170722BF22
:101BF00012F1010211F101014FF0004143F1000324
:101C000000F0004043EA00007047F9D35708DAE7D4
:101C100046EA064613F1400F4FEA16461FDD13F160
:101C2000200FDFBF16430A46002120335B42C8D095
:101C3000C3F1200746EA064602FA07F74FEA1646BE
:101C400046EA0706C3F1200722FA03F201FA07F772
:101C500021FA03F14FF0000342EA0702B1E746EA36
:101C6000020646EA06464FEA164646EA0106BCBFA9
:101C700046EA0646360C4FF000034FF000024FF0E4
:101C800000019EE72DE9C048934630B491E8380042
:101C900007C831EA400C48BF34EA430C03D5FFF7CC
:101CA000F2FDFFF78CFFF0BCBDE800882DE9C048CD
:101CB000934630B491E8380007C810F0804F08BF51
:101CC00013F0804F03D100F005F8FFF778FFF0BC68
:101CD000BDE8008820F07F4780EA030023F07F4CB6
:101CE00007EB0C03A3F57C5300F00040A3F1FE03C7
:101CF00092F0000F00F0B38095F0000F00F07780B5
:101D00002DE901494FEA11404FEA144621EA004803
:101D100000FB06FC24EA064708FB06F607FB08F86A
:101D200000FB07F718EB06484CEB164C4FEA124B3A
:101D300018EB07484FEA15464CEB174022EA0B4ECA
:101D40000BFB06FC25EA06470EFB06F607FB0EFE1C
:101D50000BFB07F71EEB064E4CEB164C4FF0000644
:101D60001EEB074E4CEB174B18EB0B0840F1000035
:101D700018EB0E0B58EB000840F100008F1A4FF0E3
:101D800000013CBFC943661B14BFB5EB040C002126
:101D90003CBFC943F61B4FEA17444EEA8E0E27EAB2
:101DA00004454FEA1C4704FB07622CEA074C05FB7D
:101DB00007F70CFB05F604FB0CFC16EB074642EBA1
:101DC000174216EB0C4642EB1C421BEB060658EB87
:101DD0000202414146EA9E0601D5BDE80189B619D5
:101DE000524141EB0101A3F10103BDE801894FEA32
:101DF00014454FEA114724EA054621EA074C05FB42
:101E000007F406FB07F70CFB06F105FB0CFC11EBD6
:101E1000074144EB17444FEA124711EB0C4144EBE6
:101E20001C4422EA074C05FB07F206FB07F70CFBF4
:101E300006F605FB0CFC16EB074642EB174216EBC9
:101E40000C4642EB1C456A1854F1000148BF70472C
:101E5000B619524141EB0101A3F10103704795F01E
:101E6000000F37D04FEA11424FEA144721EA0246E9
:101E700024EA074C02FB07F106FB07F70CFB06F40C
:101E800002FB0CFC14EB074441EB17414FEA1547EA
:101E900014EB0C4441EB1C4125EA074C02FB07F50F
:101EA00006FB07F70CFB06F602FB0CFC16EB0746DD
:101EB00045EB174516EB0C4645EB1C42121951F148
:101EC000000148BF7047B619524141EB0101A3F12F
:101ED000010370474FEA14454FEA114724EA0546CB
:101EE00021EA074C05FB07F106FB07F70CFB06F29E
:101EF0004FF0000605FB0CFC12EB074241EB1741CB
:101F000012EB0C4251EB1C4148BF7047921841EB59
:101F10000101A3F10103704700BFFEE770B504465D
:101F200005E01648056805F0450000B100E0F8E757
:101F300000BF042000F064FC20B1042000F05AFC33
:101F4000032070BD012000F05BFC20B1012000F0F7
:101F500051FC0120F5E7094824380068A04201D06F
:101F60001020EEE740F2FF5000F044FC0348203818
:101F7000006808210840C0B2E3E70000342C0140AB
:101F80007047F0B50A4600210023002400BF3DE061
:101F9000012505FA01F3156805EA03049C4234D1D2
:101FA00005684F000326BE40B543056015794E0015
:101FB000B5400668354305601579012D02D01579C5
:101FC000022D16D185684F000326BE40B5438560BB
:101FD00055794E00B54086683543856045680126D1
:101FE0008E40B5434560456896798E40B6B235431C
:101FF0004560C5684F000326BE40B543C560D5792E
:102000004E00B540C6683543C560491C1029BFD392
:10201000F0BDF0B5002300244D07ED0E02FA05F3E4
:10202000CE1000F1200555F826504E07F70E0F266A
:10203000BE40B543CF1000F1200646F82750CE1021
:1020400000F1200555F8265045EA0304CE1000F1B2
:10205000200545F82640F0BD018370474161704777
:1020600000BFFEE71CB50121202000F0FFFA4FF46D
:10207000C060009001208DF8040000208DF806005B
:1020800003208DF8050001208DF8070069460448FB
:10209000FFF777FF4FF4C0610148FFF7DDFF1CBD7C
:1020A0000014024000BFFEE77047000070B5002139
:1020B00000230F22C4781CB3174C246804F4E06496
:1020C000C4F5E064C4F30721C1F10404E3B20A419A
:1020D00044789C40E1B28478144021430C07210EDF
:1020E0000E4C05786155047804F01F050124AC40BE
:1020F00005786D11AD0005F1E025C5F8004109E056
:10210000047804F01F050124AC40054D06787611D3
:1021100045F8264070BD00000CED00E000E400E052
:1021200080E100E002490143024A1160704700006B
:102130000000FA050CED00E070B500240CE000256D
:1021400006E00020074901EBC5010855681CC5B22F
:10215000802DF6DB601CC4B2082CF0DB00F072F9B5
:1021600070BD00009019002070B5044604F00F0502
:102170001248006820F47070104908600846006832
:1021800040EA851008604FF6FF7000EA85110B48A1
:102190001438FFF763FFC4F3001009490860C4F363
:1021A00040100849C1F89802C4F38010064908603D
:1021B000E0090649C1F8980270BD00001408024009
:1021C000AC0241420080404294024242000042423E
:1021D0002DE9F05F06460F4690461C46DDF828A024
:1021E0004FF0000BE11704EB5171C910A4EBC101D2
:1021F00031B92046E11704EB5171C1F3C70506E080
:102200002046E11704EB5171C910491CCDB23D467F
:1022100015E02946304600F03BF9B1460BE059463F
:102220000BF1010B1AF80100012100F0FDF909F191
:10223000010000F0FF09C145F1DB681CC5B2A542F1
:10224000E7DBBDE8F09F0000F0B5144600267F28CC
:1022500001DC3F2900DDF0BD0B46CF1701EB5777BE
:10226000FF10C7F10707FAB2CF1701EB5777FF103E
:10227000A1EBC707FDB2C5F107070123BB40DEB2E2
:102280004CB10A4B03EBC0039B5C3343074F07EB96
:10229000C007BB5408E0054B03EBC0039B5CB34392
:1022A000024F07EBC007BB5400BFD4E790190020D2
:1022B0001CB501215F2000F0D9F910200090012009
:1022C0008DF8040000208DF8060003208DF805002D
:1022D00001208DF8070069464E48FFF752FEC020E6
:1022E000009069464C48FFF74CFE4FF43C6000906C
:1022F00069464A48FFF745FEC020009069464848B5
:10230000FFF73FFE6020009069464648FFF739FE20
:102310004FF40040009069464348FFF732FE012029
:10232000424908604249C1F89C024249086042495A
:102330000860002041490860642002F089F801200B
:102340003F49C1F8BC020021AE2000F06DF9002128
:10235000D52000F069F90021502000F065F9002136
:10236000A82000F061F900213F2000F05DF9002174
:10237000D32000F059F90021084600F055F900215A
:10238000402000F051F900218D2000F04DF900218E
:10239000142000F049F90021202000F045F9002127
:1023A000022000F041F90021A12000F03DF90021B8
:1023B000C02000F039F90021DA2000F035F90021C1
:1023C000122000F031F90021812000F02DF90021C8
:1023D000EF2000F029F90021D92000F025F9002193
:1023E000F12000F021F90021DB2000F01DF900218F
:1023F000302000F019F90021A42000F015F9002187
:10240000A62000F011F90021AF2000F00DF9FFF730
:1024100093FE1CBD00000240000402400008024080
:10242000000C02400010024000180240900240429E
:10243000008041429C82404298824142BC02434219
:102440000000434270B500241CE004F1B001C8B2A2
:10245000002100F0E9F80021084600F0E5F800212D
:10246000102000F0E1F8002508E0084901EBC50163
:10247000085D012100F0D8F8681CC5B2802DF4DB9E
:10248000601CC4B2082CE0DB70BD00009019002075
:1024900070B504460D4605F1B001C8B2002100F048
:1024A000C3F804F00F00002100F0BEF8102141EA4B
:1024B0001410002100F0B8F870BD00002DE9F84FAD
:1024C00080460F4616461C46BA462046E31704EBE4
:1024D0005373DB1021464FEAE47C04EB5C7C4FEA4B
:1024E000EC0CA4EBCC0CBCF1000F02D04FF0010CB3
:1024F00001E04FF0000C6344224604EBD27C4FEA2B
:102500006C0C03FB0CF303F0FF0BA6F12000C6B22A
:1025100000254EE00C2C07D106EB4600274901EBC5
:102520008000405D009013E0102C05D1244800EBA2
:102530000610405D00900BE0182C07D106EBC6009A
:10254000204901EB8000405D009001E0BDE8F88F7C
:102550004FF0000927E0009800F0800028B13946CC
:1025600040460A9AFFF770FE09E00A9808B9012070
:1025700000E00020024639464046FFF765FE00981D
:102580004006000E0090781CC7B2A7EB0A00A042DC
:1025900005D1574608F1010000F0FF0806E009F1F7
:1025A000010000F0FF09B9F1080FD4DB00BF681C7F
:1025B000C5B25D45AEDB00BFC8E700001982000868
:1025C0008D8600087D8C0008F8B506460F46154636
:1025D0001C4621E004EBD4714910C1F18001B142E5
:1025E00002DA00263819C7B2C4F14000B84204DA52
:1025F000002006460746FFF79FFD012000902A783D
:10260000234639463046FFF759FF204604EBD07188
:1026100006EB6101CEB26D1C28787E2802DC28789A
:102620002028D7DAF8BD000070B505460C462846CC
:10263000FFF79AFD0748046000200749C1F89C0293
:102640000649086001200860054908600549C1F88D
:10265000980270BD98824142008040429002404200
:102660009C824042008041427047000029B1064AE6
:1026700012680243044B1A6004E0034A1268824362
:10268000014B1A60704700003038024029B1064AF9
:1026900012680243044B1A6004E0034A1268824342
:1026A000014B1A60704700004038024029B1064AC9
:1026B00012680243044B1A6004E0034A1268824322
:1026C000014B1A60704700002038024029B1064AC9
:1026D00012680243044B1A6004E0034A1268824302
:1026E000014B1A60704700004438024029B1064A85
:1026F00012680243044B1A6004E0034A12688243E2
:10270000014B1A607047000024380240F0B50021E8
:1027100000220024022500260223324F3F6807F0E2
:102720000C0121B1042905D0082937D105E02E4F2D
:10273000076036E02D4F076033E02A4F3F1F3F68A8
:10274000C7F38056274F3F1F3F6807F03F036EB126
:10275000264FB7FBF3F7DFF88CC0ACF1040CDCF8C4
:1027600000C0CCF3881C07FB0CF40CE01E4FB7FB39
:10277000F3F7DFF870C0ACF1040CDCF800C0CCF368
:10278000881C07FB0CF4174F3F1F3F68C7F3014736
:102790007F1C7D00B4FBF5F7076002E0124F076075
:1027A00000BF00BF0F4F3F6807F0F0010909104F4D
:1027B0007A5C0768D74047600A4F3F6807F4E051EA
:1027C000890A0B4F7A5C4768D7408760054F3F689E
:1027D00007F46041490B064F7A5C4768D740C760F1
:1027E000F0BD0000083802400024F40000127A0016
:1027F000F81000200149086070470000382C0140A3
:1028000001460020034A12680A400AB1012000E094
:1028100000207047342C014010B500F017F810BDAF
:102820000021094B02681A601A1D11686FF30A0132
:10283000D0E901231A43C3681A4303691A431143B9
:10284000014A121D11607047082C014010B54FF469
:102850008070FFF7D5FF78B34C480078012814D179
:1028600000204B4908600C20486040208860002010
:10287000C8604FF4806008610846FFF7D1FF0C2064
:10288000FFF74CFB4349087002E000204149087003
:102890004148006840F480703F490860081D0068A6
:1028A0004CF23A3188433C49091D086001203B49FC
:1028B00008703848007810BDFFE70220FFF7A0FF3E
:1028C00078B10220FFF796FF3348001D00684CF2F4
:1028D0003A3188433049091D086002202D490870AB
:1028E000E9E70820FFF78CFF78B10820FFF782FFA7
:1028F0002948001D00684CF23A3188432649091DD9
:102900000860042023490870D5E72020FFF778FFEE
:1029100078B12020FFF76EFF1F48001D00684CF2C1
:102920003A3188431C49091D08600620194908707E
:10293000C1E71020FFF764FF78B11020FFF75AFFBE
:102940001548001D00684CF23A3188431249091DB0
:10295000086005200F490870ADE74FF40070FFF7DD
:102960004FFF80B14FF40070FFF744FF0A48001D8D
:1029700000684CF23A3188430749091D0860072076
:102980000449087097E7002095E70000190000202F
:10299000C81300201A000020382C01401B00002022
:1029A000704700000CB5002001900090344800688A
:1029B00040F480303249086000BF3148006800F4BC
:1029C000003000900198401C0190009818B90198BF
:1029D000B0F5A04FF1D12A48006800F4003010B1E2
:1029E0000120009001E0002000900098012846D1CD
:1029F00023484030006840F0805021494031086051
:102A00002048006840F440401E4908601C480830D7
:102A100000681B49083108600846006840F400401F
:102A200008600846006840F4A05008601648091F76
:102A30000860081F006840F08070091F086000BF30
:102A40000F48006800F000700028F9D040F20570CF
:102A50000E4908600A480830006820F00300084961
:102A6000083108600846006840F00200086000BFB6
:102A700003480830006800F00C000828F8D10CBDAD
:102A8000003802400070004008544007003C0240FB
:102A9000042808D14FF0E021096941F004014FF00A
:102AA000E022116107E04FF0E021096921F0040103
:102AB0004FF0E022116170477047000010B51548D3
:102AC000006840F47000134908601348006840F043
:102AD00001001149086000200F49083108600E48C4
:102AE00000680E4908400C4908600D48091D08603F
:102AF000081F006820F48020091F08600020064994
:102B00000C310860FFF74EFF4FF00060014980393B
:102B1000086010BD88ED00E000380240FFFFF6FEBF
:102B20001030002410B501210A4800F079F801287E
:102B30000AD10949086980470021064800F08CF84D
:102B40006421044800F086F80121024800F04DF8A5
:102B500010BD000000080040F011002010B5012158
:102B6000094800F05DF868B10848008840F400406A
:102B7000064908800121044800F037F80021024886
:102B800000F036F810BD00000014004020000020C6
:102B90007FB505460C4601212020FFF777FD019502
:102BA000ADF800400020ADF80800ADF8020069461D
:102BB0000B4800F053F801221146094800F041F893
:102BC00037208DF80C0000208DF80D0001208DF8C5
:102BD0000E008DF80F0003A8FFF768FA7FBD000014
:102BE00000140040CA4302827047CA430282704701
:102BF00021B1028842F00102028004E002884FF60F
:102C0000FE731A40028070470146486A70470246C8
:102C10000020138A0B400BB1012000E00020704718
:102C200030B50246002000230024158A05EA01037E
:102C3000958905EA010413B10CB1012000E00020E0
:102C400030BD1AB183890B43838102E083898B43B2
:102C500083817047C16270474162704700220288D9
:102C6000184B98420ED0184B98420BD0B0F1804FC1
:102C700008D0164B984205D0154B984202D0154B00
:102C8000984204D14FF68F731A404B881A43124B67
:102C9000984207D0114B984204D04FF6FF431A4098
:102CA0000B891A4302804B68C3620B880385054B6E
:102CB000984202D0044B984201D18B7A03860123BB
:102CC000838270470000014000040140000400407E
:102CD00000080040000C00400010004000140040BC
:102CE0007FB504460D4601210420FFF7CFFCADF867
:102CF00000500020ADF802000194ADF808006946CC
:102D00000D48FFF7ABFF012211460B48FFF799FF73
:102D100001210948FFF76CFF1E208DF80C000320ED
:102D20008DF80D008DF80E0001208DF80F0003A81E
:102D3000FFF7BCF97FBD00000008004010B540F26D
:102D400025511D4800F011F910B31B4800F0C6F9D9
:102D5000C4B21A48008800F40040C8B91748008877
:102D600000F4804060B10A2C03D000201349088091
:102D700020E01248008840F400401049088019E023
:102D80000D2C06D10D48008840F480400B49088086
:102D900010E00A480088C0F30D0009490C540748A8
:102DA0000088401C0549088008460088C72801DDC6
:102DB0000020088010BD0000001001400800002025
:102DC000E412002010B540F22551164800F0CDF86D
:102DD00000B3144800F082F9C4B21348008800F42C
:102DE0000040B8B910480088B0F5C87F13DA002158
:102DF0000E48FFF731FF0C48008818B901210B4835
:102E0000FFF7F6FE084801880088401C064A10803B
:102E10000748445405E00448008840F40040024953
:102E2000088010BD00480040200000200014004031
:102E30000018002001F40072B2F5007F00D100BF3D
:102E4000CA430280704721B1828942F400528281D4
:102E500004E082894DF6FF731A40828170470000BA
:102E600010B504463248844208D101211020FFF7F2
:102E70003DFC00211020FFF739FC57E02D4884422B
:102E800009D101214804FFF711FC00214FF4003063
:102E9000FFF70CFC4AE02848844209D1012188044C
:102EA000FFF704FC00214FF48020FFF7FFFB3DE01B
:102EB0002248844209D10121C804FFF7F7FB002111
:102EC0004FF40020FFF7F2FB30E01D48844209D1A7
:102ED00001210805FFF7EAFB00214FF48010FFF7FE
:102EE000E5FB23E01748844208D101212020FFF7A9
:102EF000FDFB00212020FFF7F9FB17E01248844278
:102F000009D101218807FFF7D1FB00214FF0804054
:102F1000FFF7CCFB0AE00D48844207D101214005B0
:102F2000FFF7C4FB00216005FFF7C0FB10BD0000E8
:102F3000001001400044004000480040004C0040A8
:102F4000005000400014014000780040007C004028
:102F500002460020B1F5007F00D100BF13880B406E
:102F60000BB1012000E00020704770B5024600243C
:102F700000230025002040F66A16B14200D100BFB0
:102F8000C1F3421501F01F03012606FA03F3012DD8
:102F900002D19689334006E0022D02D1168A3340D1
:102FA00001E0968A33400C12012606FA04F41688D2
:102FB000344013B10CB1012000E0002070BDF0B529
:102FC0000346002400260025002040F66A17B94277
:102FD00000D100BF1846C1F3421401F01F060127BB
:102FE00007FA06F5012C01D10C3004E0022C01D1C6
:102FF000103000E014301AB107682F43076002E078
:103000000768AF430760F0BD2DE9FF4705460E4650
:103010000024A14600BFA046B08900B100BF2C8AA1
:1030200024F44054F08804432C82AC8941F20C60B3
:103030008443B08831890843718908430443AC81D3
:10304000AC8A24F44074B0890443AC826846FFF72C
:103050005DFB2048854202D01F48854202D1DDF841
:103060000C9001E0DDF80890A88900F4004040B120
:1030700009EBC90000EB091031684900B0FBF1F71A
:1030800007E009EBC90000EB091031688900B0FBCB
:10309000F1F76420B7FBF0F004012009642101FB83
:1030A0001078A88900F4004040B1322000EBC8003D
:1030B000B0FBF1F000F00700044308E0322000EB21
:1030C00008106421B0FBF1F000F00F0004432C81E4
:1030D000BDE8FF87001001400014014001468888C8
:1030E000C0F308007047C1F308028280704700BF38
:1030F000FEE703B401984100009850EAC12018BFD0
:1031000004204A0D18BF40F0010040F2FF72B2EBFC
:10311000515F08BF40F00200012808BF052002B03F
:1031200070472DED020B019820F0004001909DEDBD
:10313000000B02B0704700002DE9F0412DED020BAD
:103140009FED3D0B2DED028B9FED3D8BDDE9025494
:10315000C4F30A50A0F2FF36142E37DA002E18DA24
:1031600053EC102B9DED020B51EC100B04F092F977
:1031700053EC182B04F05EFD57D2002CA4BF0024A2
:10318000254652DA24F00040284318BF2E4C4CD07C
:103190001AE02E4820FA06F704EA070028431FD059
:1031A00053EC102B9DED020B51EC100B04F072F957
:1031B00053EC182B04F03EFD37D2002C03DA4FF409
:1031C0008010F0400444BC4300252EE0332E07DC81
:1031D000A6F114004FF0FF3121FA00F73D4206D16D
:1031E0009DED020BBDEC028B02B0BDE8F08153EC0B
:1031F000102B9DED020B51EC100B04F051FD53EC24
:10320000182B04F017FD10D2002C0DDA142E08BF75
:10321000641C09D0C6F13400012101FA00F02844F1
:10322000A84238BF641C0546BD43CDE902549DED5C
:10323000020BD7E7000000009C7500883CE4377E55
:1032400000000000000000000000F0BFFFFF0F00C2
:103250002DE9F04D2DED040B2DED0C8B96B0DDE935
:103260002350259CDDF888A025F0004624F0004876
:10327000BAF1000F14BF0121002101EB4502FE4904
:1032800053184A1093422AD3002814BF0123002365
:1032900003EB44030B44F9498B4220D358EA000165
:1032A0009FEDF78B6FD0DFF8E0B35D4503D1BAF146
:1032B000000F05D187E0BAF1000F08BF002100D050
:1032C000012101EB450111F5001F08D8002814BFAA
:1032D0000121002101EB440111F5001F0BD99DEDE7
:1032E000241B9DED220B16B0BDEC0C8B04B0BDE889
:1032F000F04D00F05DBE0027002DBCBFE3498845BE
:1033000021DAE3498845A8BF02271CDAC3451ADC45
:10331000E04901EB2851142908DDC1F1340220FAFB
:1033200002F101FA02F282420DD108E058B9C1F16E
:10333000140228FA02F101FA02F2424503D101F027
:103340000101C1F1020756EA0A011DD1002C1BDA66
:10335000002D18BF022F01D0012F0AD00220FDF747
:10336000A4FB16B0BDEC0C8B04B0BDE8F04D00F032
:1033700007BE0220FDF799FB00F002FE51EC100B96
:1033800004F04AF883E01EE09FEDC39B9FEDC4ABC1
:10339000002872D1BD4880452DD105F1804010F53F
:1033A000801008BFBAF1000F0DD0B34515DC002C1A
:1033B000A1BF9DED240B16B0BDEC0C8B04B0A8BFD3
:1033C000BDE8F08D12E0B0EE480AF0EE680A16B0E3
:1033D000BDEC0C8B04B0BDE8F08D002C06DA9DED41
:1033E000240B51EC100B04F017F850E0AE48784471
:1033F00090ED000BEBE7D8454FD1002C4ADA2EB107
:1034000086423BD1BAF1000F44D126E0BAF1000F59
:1034100013D00220FDF749FB00F0E6FD8DED020B15
:103420009DED220B8DED000B10EE900A039961F3D8
:103430001E0003909DED020BC9E78DED029B9DEDF3
:10344000220B19EE901A10EE900A8DED000B61F32D
:103450001E0003909DED020BB9E78DED02AB9DEDD3
:10346000220B1AEE901A10EE900A8DED000B61F30C
:103470001E0003909DED020BA9E729E00ADA9DEDFD
:10348000220B51EC180B53EC102B04F0BFF841EC5D
:10349000100B9CE79DED220B99E7864218DAB4F1F8
:1034A000804F0DD0A4F10050B0F1FF5010D1002D8D
:1034B0000EDB9DED220B51EC100B02F0CFFDE6E789
:1034C0009DED220B53EC102B51EC100B00F0AEBC19
:1034D0009DED220B51EC100B01F098F8BAF1000FA2
:1034E000CDE90C0134D19FED720BDEB1A6F1E040C5
:1034F000B0F17F602CD1002D01DD002C0DDA002D04
:1035000001DD002C1FDB002D16DA002C14DB012F4F
:1035100008BF9FED690B3FF45AAFB0EE490AF0EED9
:10352000690A54E7022F18BF002D0CD0012F0AD1D1
:10353000002DFFF64CAF06E0002DB8BF002C07DAD7
:10354000012F3FF444AFB0EE4A0AF0EE6A0A3EE7BC
:10355000012000EBE57A5AEA07000CD05848002514
:1035600080457CDD57495848884514DDB0420DDB65
:10357000002C19DB2BE00120FDF797FA16B0BDEC0B
:103580000C8B04B0BDE8F04D00F01EBDB34502DC6D
:10359000002C09DC1BE0864202DA002C17DA03E07B
:1035A0005E4527DD002C12DD0220FDF77EFA00F0DB
:1035B0001BFD10EE901A19EE900A8DED020B8DEDA9
:1035C000009B61F31E0003909DED020BFFE60220BD
:1035D000FDF76BFA00F018FD10EE901A18EE900A45
:1035E0008DED020B8DED008B61F31E0003909DEDC0
:1035F000020BECE69DED220B53EC182B51EC100B5B
:1036000004F026FC9FED320BCDE90A0153EC102BA0
:103610009DED0A0B51EC100B04F00EFA9FED2E1BE2
:1036200053EC112B04F03CFB9DED0A1B53EC112BCA
:1036300004F002FA9FED2A1B53EC112B04F030FB2F
:103640009DED0A0B41EC190B53EC102B51EC100BB8
:1036500004F0F2F953EC192B04F0EEF900E07EE0EF
:103660009FED210B41EC1A0B53EC102B9DED0A0B37
:1036700051EC100B3CE00000FFFF1F00FFFF0F00AC
:10368000000000000000F03F0000F03F0000F07F6D
:103690000000404301FCFFFF000000000000F07F3D
:1036A0000000000000000000DE66000000000000D6
:1036B0000000000000000080000000000000F0FF9B
:1036C0000000E0410000F043FFFFEF3F000000007A
:1036D000000000000000D03F555555555555D53FC9
:1036E000000000000000E03F000000604715F73FC9
:1036F00004F0A2F941EC190B9FEDFD0B51EC1A0BF4
:1037000053EC102B04F098F941EC1A0B9FEDFA0BD7
:1037100053EC102B9DED0A0B51EC100B04F08CF9BF
:1037200053EC1A2B04F094FB41EC1A0B51EC190BDF
:1037300053EC1A2B03F0AEFE0690CDE906519DED39
:10374000060B53EC192B51EC100B04F081FB53ECDE
:103750001A2B04F0A5FA41EC100B00F09FB90020E1
:10376000B6F5801F0EDA9FEDE60B53EC102B9DEDA6
:103770000C0B51EC100B04F05FF9CDE90C016FF06C
:1037800034000E4600EB2650A0F2FF38C6F31300BB
:10379000DD4940F07F6646F040568842D8BF00249D
:1037A00009DDDA498142C8BF012404DC0024A6F502
:1037B000801608F10108D648784400EBC4000D9645
:1037C00090ED00BB9DED0C0B53EC1B2B51EC100B43
:1037D00004F03EFB9DED0C0B41EC1A0B53EC1B2B44
:1037E00051EC100B03F056FE41EC100B51EC180B92
:1037F00053EC102B03F00AFF41EC1C0B51EC1A0B9D
:1038000053EC1C2B04F018F941EC190BC1488DED59
:10381000109B7844109590ED000B4FF0005040EA5B
:10382000660000EB84408DED0A0B00F500200B9044
:103830009DED0A0B53EC1B2B51EC100B04F008FB15
:103840009DED0C1B53EC112B04F02AFA41EC100BEC
:1038500053EC102B9DED100B51EC100B04F0ECF819
:103860009DED0A0B41EC1B0B53EC102B9DED100B47
:1038700051EC100B04F0E0F853EC1A2B04F010FAA2
:1038800053EC1B2B04F0E4FA53EC1C2B04F0D4F89B
:1038900041EC1B0B53EC192B51EC190B04F0CCF839
:1038A00041EC1A0B9C480621B0EE4A0AF0EE6A0A77
:1038B000784400F0E9FAB0EE40CAF0EE60CA53EC8A
:1038C0001A2B51EC1A0B04F0B7F853EC1C2B04F034
:1038D000B3F89DED100B41EC1A0B53EC192B51EC86
:1038E000100B03F0D7FD53EC1B2B04F0A5F853ECA1
:1038F0001A2B03F0CFFD9DED100B41EC1A0B53EC8E
:10390000102B51EC100B04F097F841EC1C0B9FEDC1
:1039100084DB53EC1D2B03F0BDFD53EC1A2B03F09D
:10392000B9FD0A90CDE90A519DED0A0B53EC1D2B10
:1039300051EC100B04F08CFA53EC1C2B04F088FAB9
:1039400053EC1A2B04F0ACF99DED0A0B41EC1C0B67
:1039500053EC102B9DED100B51EC100B04F06CF898
:1039600041EC1A0B53EC192B51EC1C0B04F064F8CE
:103970009DED0A0B41EC190B53EC102B51EC1B0B7A
:1039800004F05AF853EC192B03F084FD41EC190BA9
:1039900051EC1A0B53EC192B03F07CFD1090CDE980
:1039A00010519DED100B53EC1A2B51EC100B04F041
:1039B0004FFA53EC192B04F073F941EC190B9FEDFE
:1039C0005A0B53EC102B9DED100B51EC100B04F027
:1039D00033F841EC1A0B9FED560B51EC190B53ECDD
:1039E000102B04F029F841EC190B9FED530B53EC0D
:1039F000102B9DED100B51EC100B04F01DF853EC47
:103A0000192B03F047FD41EC100B4D48784400EBB7
:103A1000C40090ED001B51EC100B53EC112B03F084
:103A200039FD41EC190B404603F0B3FFCDE90A0123
:103A300053EC192B51EC1A0B03F02CFD41EC100B3D
:103A40004048784400EBC40090ED00BB51EC100BF3
:103A500053EC1B2B03F01EFD9DED0A1B53EC112BA9
:103A600003F018FD0690CDE906519DED0A0B53ECCD
:103A7000102B9DED060B51EC100B04F0E9F953EC03
:103A80001B2B04F0E5F953EC1A2B04F0E1F953EC8D
:103A9000192B04F005F941EC100B00BF781EB0EEB5
:103AA00048AAF0EE68AA5AEA000008BF9FED268BEC
:103AB0009DED241B53EC102B8DED001B00959DED0F
:103AC000240B51EC100B03F0B7FF9DED000B41EC04
:103AD000190B53EC102B9DED240B51EC100B04F043
:103AE000B7F99DED061B53EC112B03F0A5FF2FE05A
:103AF000FE822B654715F73F44DF5DF80BAE543E61
:103B000000000000000040438E9803007AB60B00CE
:103B100084620000BA620000BC6100000000000086
:103B20000000000000000840000000E009C7EE3F70
:103B3000FD033ADC09C7EE3FF5015B14E02F3EBE02
:103B4000506000000A600000000000000000F0BFAC
:103B500053EC192B03F09EFC9DED060B41EC190B69
:103B600053EC102B9DED000B51EC100B03F064FF98
:103B7000CDE910019DED100B51EC190B53EC102BFE
:103B800003F088FCCDE902010C46AB498C422FDBE7
:103B9000611A084318D19DED100B53EC102B9DEDCD
:103BA000020B51EC100B04F053F941EC1B0B9FED91
:103BB000A40B51EC190B53EC102B03F06BFC53ECE2
:103BC0001B2B04F037F82DD20220FCF76EFF00F01B
:103BD0000BFA10EE901A18EE900A8DED020B8DED97
:103BE000008B61F31E0003909DED020BFFF7EFBB0E
:103BF000954A24F00041914214D39449214408434A
:103C00007FF4E5AC9DED100B53EC102B9DED020BFA
:103C100051EC100B04F01CF953EC192B04F00AF8CA
:103C20007FF6D5AC24F0004089498A4A002601EB92
:103C3000205182422BDA481C4FF4801121FA00F007
:103C40002044854AC0F30A517A44A1F2FF3192ED33
:103C5000000B824A8DED0A0BCA4020EA0202C0F333
:103C6000130040F48010C1F1140120FA01F60B9208
:103C7000002CB8BF76429DED0A0B53EC102B9DED46
:103C8000100B51EC100B04F0E3F8CDE910019DEDA1
:103C9000100B51EC190B53EC102B03F0FBFB9FEDB9
:103CA000700B0A90CDE90A5153EC102B9DED0A0BD5
:103CB00051EC100B03F0C0FE41EC1B0B9FED6A0BA7
:103CC00053EC102B9DED0A0B51EC100B03F0B4FEDE
:103CD0009DED100B41EC1C0B53EC102B9DED0A0BD2
:103CE00051EC100B04F0B4F853EC192B03F0D8FF8F
:103CF0009FED5F1B53EC112B03F09EFE53EC1C2B2E
:103D000003F0C8FB41EC190B51EC1B0B53EC192BC6
:103D100003F0C0FBCDE902019DED020B53EC1B2B20
:103D200051EC100B04F094F853EC192B03F0B8FF8E
:103D30009DED020B41EC190B53EC102B51EC100BC9
:103D400003F07AFECDE90A014B489DED0A0B0521EF
:103D5000784400F099F89DED0A1B51EC100B53ECE0
:103D6000112B03F069FE9DED021B53EC112B03F0A8
:103D700097FFCDE906019DED020B53EC192B51EC99
:103D8000100B03F059FE53EC192B03F083FB9FED4E
:103D90003C0B41EC190B53EC102B9DED060B51EC39
:103DA000100B04F055F89DED060B41EC1B0B53EC8A
:103DB000102B9DED020B51EC100B03F03DFE53EC6C
:103DC0001B2B03F023FC53EC192B04F041F89DED61
:103DD000021B53EC112B04F03BF853EC1A2B03F0AD
:103DE0005FFFCDE9020101EB065001150029C8BFB4
:103DF000039015DC9DED020B324651EC100B04F0E4
:103E0000C2F9FFF776F9042808BF00F0FDF8324642
:103E10009DED020B51EC100B04F0B5F9CDE9020158
:103E20009DED020B51EC180B53EC102B03F004FE2C
:103E3000FFF72DBB000000000000904000000000D4
:103E4000FE822B654715973C00CC904000346F3FB5
:103E500001FCFFFF0000E03F845E0000FFFF0F0059
:103E600000000000432EE63F396CA80C615C20BEC8
:103E7000EF39FAFE422EE63F4C5D000000000000E4
:103E8000000000000000004070B504462DED028BDC
:103E90004D1E00EBC500B0EE408AF0EE608A90ED5A
:103EA000000B35F0060017D053EC182B51EC100B1B
:103EB00003F0C2FD41EC100B6D1E04EBC50090ED4C
:103EC000001B51EC100B53EC112B03F0E3FA41EC07
:103ED000100B35F00600E7D1022D36D0042D1CD092
:103EE000062D1CBFBDEC028B70BD53EC182B51ECA2
:103EF000100B03F0A1FD94ED0A1B53EC112B03F002
:103F0000C9FA53EC182B03F097FD94ED081B53EC02
:103F1000112B03F0BFFA41EC100B53EC182B51ECB2
:103F2000100B03F089FD94ED061B53EC112B03F0ED
:103F3000B1FA53EC182B03F07FFD94ED040B53EC16
:103F4000102B03F0A7FA41EC100B53EC182B51EC9B
:103F5000100B03F071FD94ED021B53EC112B03F0D9
:103F600099FA53EC182B03F067FD94ED001B53EC0A
:103F7000112B03F08FFABDEC028B41EC100B70BDDE
:103F80009FED070B10B553EC102B9FED070B51EC79
:103F9000100B03F03BFB41EC100B10BD00000000C8
:103FA0000000000000000000000000000000F03FE2
:103FB00010B553EC112B51EC100B03F06BFA41ECE4
:103FC000100B10BD000000009FED050B10B553EC69
:103FD000102B51EC100B03F019FB41EC100B10BD32
:103FE00000000000000000009FED050B10B553EC31
:103FF000102B51EC100B03F01FFD41EC100B10BD0A
:1040000000000000000000709FED050B10B553ECA0
:10401000102B51EC100B03F00FFD41EC100B10BDF9
:10402000000000000000001030380A2801D20120F2
:1040300070470020704700BF7047000070B504460D
:1040400000250948008800F4004058B100200649C6
:104050000988C1F30E01054A505421461046FCF769
:1040600073FB0546284670BD200000200018002084
:1040700010B500BF1748008800F040000028F9D0B4
:104080002B201449091D08800F2000F0E1F900BF22
:104090001048008800F040000028F9D02B200D497E
:1040A000091D08800F2000F0D3F900BF09480088DF
:1040B00000F040000028F9D02B200649091D088097
:1040C0004FF4FA7000F0C4F9142203A103A000F029
:1040D00007F810BD004800404F4B0000415400005D
:1040E0002DE9F04106460D461446002700201349ED
:1040F0000880314612A001F0E9FFE5B1DCB113E020
:104100000A2000F0A5F90D48008800F4004058B1DD
:104110002846FFF793FF20B129460BA0FCF73AF998
:1041200006E0002005490880601E80B20400E7D147
:1041300000BF04B901273846BDE8F0812000002007
:1041400025730D0A0000000061636B3A25730D0AA8
:104150000000000010B53221002000F041FC0446B0
:104160004FF478402A49088005E0FFF781FF4FF4BB
:10417000487000F06DF9142226A127A0FFF7B0FFC8
:104180000028F2D100BF142222A124A0FFF7A8FF2B
:104190000028F8D132221FA122A0FFF7A1FF14228C
:1041A0001CA123A0FFF79CFF4FF47A7000F050F998
:1041B0004FF47A7000F04CF94FF47A7000F048F93F
:1041C0004FF47A7000F044F9142212A11AA0FFF7FC
:1041D00087FF1C4803681C481CA102682046FCF7A6
:1041E000E5F818480368184818A102682046FCF74B
:1041F000D1F800BF4FF4967219A12046FFF770FF67
:104200000028F7D1214600F0D9FB002010BD0000A6
:104210000A0000204F4B000041540000415445303B
:104220000000000041542B43574D4F44453D3100A1
:1042300041542B525354000041542B4349504D5587
:10424000583D3000381100203011002041542B43DC
:10425000574A41503D222573222C2225732200000B
:104260005749464920474F542049500070B50446ED
:1042700022E02568A08900F4807020B9A06810B100
:10428000A068FFF7F3FFA08900F4807028B92069C7
:1042900018B10B49206909688847A08900F40070AB
:1042A00028B9206A18B10649206A0968884720465B
:1042B0000349096888472C46002CDAD170BD0000FC
:1042C0002C0000200246906801E0491E006808B1F9
:1042D0000029FADC704770B505460E46AC6800E070
:1042E00024682CB13146206A00F057F80028F7D135
:1042F000204670BD10B52820054909688847044646
:104300001CB128212046FCF758FB204610BD0000B8
:104310002800002010B5044600221146204600F077
:1043200001F810BD2DE9F04780460D4616460024E1
:10433000FFF7E0FF07460020124908600FB9BDE80B
:10434000F087404601F081FE81464946384601F03B
:1043500035F8044624B93846FFF788FF0020EEE719
:1043600066B1204601F071FE0446207830B138462F
:10437000FFF77CFF034804600020E0E705B12C60F4
:104380003846DCE72400002010B504460023012253
:104390001946204601F0BEFD10BD70B504460D461D
:1043A0002CB9AC4201D0012070BD0020FCE70DB952
:1043B0000120F9E705E0207808B90020F4E7641C43
:1043C0006D1C2078FBF7C7FF06462878FBF7C3FF74
:1043D0008642F0D02078FBF7BEFF06462878FBF730
:1043E000BAFF301AE0E7000070B504462046FCF73B
:1043F000E1F9451C2846064909688847060000D1AE
:1044000070BD2A4621463046FCF73EFA3046F7E7B3
:104410002800002010B504466FF00400FEF738FBBA
:10442000E11704EB5171C1F3C701074A117010463F
:10443000007800EB4001C1EBC0104FF6FF7101EABC
:10444000C0000249088010BD0000002002000020CA
:1044500070B504464FF4077094FBF0F0C6B24FF409
:10446000077094FBF0F100FB114085B205E04FF4BA
:10447000077000F009F8701EC6B2002EF7D115B112
:10448000284600F001F870BD0146114A12884A43DF
:104490004FF0E0235A6100229A611A46126942F0F5
:1044A00001021A6100BF4FF0E022106900F0010222
:1044B0001AB100F48032002AF5D04FF0E0221269E0
:1044C00022F001024FF0E0231A6100229A61704746
:1044D00002000020F0B52DED048B83B005460E469A
:1044E000102324A200210846FEF76EF80024284677
:1044F00003F04FFA41EC190B9FED210B53EC102BFD
:1045000003F09AFA41EC180B02F092FF0746384686
:1045100003F088FD41EC180B53EC182B1AA16846E8
:10452000FBF744FF0C231AA218210020FEF74CF8D9
:104530000DE0AC420ADA04EB44010C2202EB8101EB
:10454000C8B2134613A21821FEF73EF8641CB44209
:10455000EFDB0C2310A218217020FEF735F80C2396
:104560006A4630215820FEF72FF803B0BDEC048BCB
:10457000F0BD000050726F67726573733A000000FF
:104580000000000000002940252E3166252500008E
:104590005B0000002A0000005D0000002DE9F041F2
:1045A00004460E460CB1206810B90020BDE8F08129
:1045B000A06806446068B04203DBA1682068084434
:1045C000F4E7304600F058FF074638460D490968C1
:1045D000884705463DB90C4920680968884700208E
:1045E00060602060E2E725B12846D4E90012FCF7BC
:1045F0004BF9054920680968884767602560A0680D
:104600002844D3E7280000202C00002082B0CDE908
:10461000000121F0004001909DED000B02B051EC33
:10462000100B704700BF054A128802F04002002AB2
:10463000F9D0C2B2014B9A807047000000100140CF
:1046400070B52821002000F0CBF9054628A329A247
:104650002CA12846FBF7AAFE4FF4FA7230A1284697
:10466000FFF73EFD0446012C05D12946002000F04D
:10467000A5F9012070BD4FF49670FFF7E9FE6422A2
:1046800027A128A0FFF72CFD00202A4908806422DA
:1046900023A129A0FFF724FD2AA0FBF77BFE2E48CB
:1046A00001F014FD1420FFF7D3FE002021490880FB
:1046B0004FF47A70FFF7CCFE1E48008800F40040EB
:1046C00030B100201B490988C1F30E01234A505420
:1046D00000F084FAFFF7CCFC322211A120A0FFF7F2
:1046E000FFFC2946002000F069F90020C2E7000025
:1046F000383000003131362E36322E38312E3133FB
:104700003800000041542B43495053544152543D0A
:1047100022544350222C222573222C2573000000A2
:104720004F4B000041542B4349504D4F44453D31C0
:10473000000000002000002041542B434950534505
:104740004E4400007374617274207472616E732E33
:104750002E2E0D0A00000000949B00080018002077
:1047600041542B434950434C4F53450038B54FF407
:10477000A060FDF7D7FCA820FFF74CFE4FF4E13016
:1047800001F0CCFC4FF4E13001F032FDFDF76AFCA2
:10479000FDF78EFD1148072360220021009028209C
:1047A000FDF716FD4FF47A70FFF752FE00240AE081
:1047B00008212046FFF78EFEFDF744FE4FF4FA7005
:1047C000FFF746FE641C082CF2DDFDF7B5FCFFF791
:1047D000C1FCFFF735FF002038BD0000300000208D
:1047E00070B5044604B970BD04488068251A29468E
:1047F000002000F017F800BFF5E7000008110020C6
:1048000070B504462146002000F064F80546681C97
:1048100008B9002070BD024880682844FAE700000B
:10482000081100202DE9F04104460E461548005DB0
:1048300038B9144820380168204688470120BDE86F
:10484000F081114850F82400B04219D90F4850F8AF
:104850002400B6FBF0F10B480C3850F8240030F877
:104860001120002508E0002306480C3850F82400E9
:104870004F1920F817306D1C9542F4DB0020DEE75D
:104880000220DCE728110020F4990008E8990008CC
:1048900010B504460C4951F824104A000B4951F850
:1048A0002400002100F0B0F8094951F824200749FC
:1048B0000C3951F82400002100F0A6F8012103482A
:1048C0000C30015510BD0000DC9900081C110020BF
:1048D000F49900082DE9F04704460F460025A94643
:1048E0002348005D20B922482038016820468847C7
:1048F0001FB94FF0FF30BDE8F0871E4850F8240084
:10490000B7FBF0F61B4850F82400B7FBF0F100FBB2
:10491000117000B1761C184850F82400451E22E0A2
:1049200013480C3850F8240030F8150010B909F17C
:10493000010901E04FF00009B14513D14FF0000823
:1049400009E00B480C3850F8240005EB080220F869
:10495000126008F10108B045F3D3064850F824006E
:104960006843C8E76D1E002DDADA4FF0FF30C2E76A
:1049700028110020E8990008DC99000810B50146CC
:104980000023002207E00B4850F8210030F8120005
:1049900000B15B1C521C084850F821009042F2D82C
:1049A00064205843044C54F82140B0FBF4F0C0B2EA
:1049B00010BD00001C110020DC99000870B50546F0
:1049C0000C4604B970BD054850F82500261A31463A
:1049D0002846FFF727FF00BFF4E700001011002072
:1049E00070B504460E4631462046FFF773FF054674
:1049F000681C08B9002070BD024850F82400284403
:104A0000F9E700001011002030B5034601E003F87B
:104A1000011B1400A2F10102F9D130BD2DE9F047CC
:104A200005460C4620785B2804D026480460002008
:104A3000BDE8F0870520E860601C01F006FB044635
:104A400020785D2801D1601CF2E7FFF753FC064691
:104A5000A860A86808B90020EAE7204601F0F5FA46
:104A600080464146304600F0A9FC074601F0EDFAC9
:104A700004460CB90020DBE717E0FFF73BFC07001A
:104A800000D1D5E737607E603E46601C01F0DDFA5C
:104A900081464946304600F091FC804601F0D5FA47
:104AA00004460CB90020C3E700BF20782C28E4D0CE
:104AB00020785D2801D1601CBAE70248046000201C
:104AC000B6E70000240000200146002208783028C4
:104AD00006DB0878392803DC08783038024415E012
:104AE0000878412806DB0878462803DC0878373840
:104AF00002440BE00878612806DB0878662803DCAE
:104B000008785738024401E0002070471201491C20
:104B10000878302806DB0878392803DC0878303834
:104B2000024415E00878412806DB0878462803DCB3
:104B30000878373802440BE00878612806DB0878EB
:104B4000662803DC08785738024401E00020DCE7DF
:104B50001201491C0878302806DB0878392803DC64
:104B600008783038024415E00878412806DB0878D8
:104B7000462803DC0878373802440BE008786128BF
:104B800006DB0878662803DC08785738024401E021
:104B90000020BAE71201491C0878302806DB0878A3
:104BA000392803DC08783038024415E008784128B9
:104BB00006DB0878462803DC0878373802440BE027
:104BC0000878612806DB0878662803DC08785738FF
:104BD000024401E0002098E7104696E72DE9FF5FC8
:104BE0007BA0FBF7D7FB4FF000094FF47A71002050
:104BF000FFF7F6FE039032210020FFF7F1FE824618
:104C000032210020FFF7ECFE834632210020FFF71F
:104C1000E7FE029032210020FFF7E2FE01904FF400
:104C20007A710398FBF7A7FE32215046FBF7A3FEEB
:104C300032215846FBF79FFE32210298FBF79BFE7C
:104C400032210198FBF797FE28210020FFF7C8FECC
:104C5000064628210020FFF7C3FE07462821002032
:104C6000FFF7BEFE804628210020FFF7B9FE05466B
:104C700028210020FFF7B4FE044628210020FFF77A
:104C8000AFFE00905948FFF745FB0646002E79D04D
:104C900057A0FBF77FFB5EA13046FFF71CFB0746E2
:104CA000002F6ED05CA0FBF775FB00213846FFF7A4
:104CB00009FB00900098FFF767FB03900398FFF74C
:104CC00029FB8046B8F1000F5BD059A0FBF762FBCF
:104CD0005FA14046FFF7FFFA0546002D14D05FA004
:104CE000FBF758FB66A12846FFF7F5FA04465CB1CE
:104CF00065A0FBF74FFB6BA150462269FBF756FB03
:104D000069A02169FBF746FB68A14046FFF7E3FA7B
:104D10000546002D23D066A12846FFF7DCFA04469D
:104D20005CB165A0FBF736FB5EA158462269FBF734
:104D30003DFB5DA02169FBF72DFB64A12846FFF731
:104D4000CAFA04465CB164A0FBF724FB55A12269B2
:104D50000298FBF72BFB54A02169FBF71BFB64A116
:104D60004046FFF7B8FA05465DB164A0FBF712FBB9
:104D70004CA12A690198FBF719FB4BA02969FBF7A5
:104D800009FB20E020E0FDF75DFB0C2352460021EB
:104D90000846FDF719FC0C235A4610210020FDF7A8
:104DA00013FC0C2310213C20029AFDF70DFC0C2370
:104DB00057A210214B20FDF707FC0C2320210020D7
:104DC000019AFDF701FCDEE704B0BDE8F09F0000AA
:104DD000626567696E2070617273655F6E6F775F81
:104DE000776561746865720A000000000018002091
:104DF000626567696E204765744F626A65637449CE
:104E000074656D20726573756C74730A0000000020
:104E1000726573756C747300626567696E204765AF
:104E20007441727261794974656D20300A00000026
:104E3000626567696E204765744F626A656374498D
:104E400074656D206C6F636174696F6E0A00000099
:104E50006C6F636174696F6E000000006265676962
:104E60006E204765744F626A6563744974656D208E
:104E70006C6F636174696F6E206E616D650A00000E
:104E80006E616D6500000000626567696E20636F8A
:104E90007574206C6F636174696F6E206E616D65EF
:104EA0000A0000002573000025730A006E6F77006A
:104EB0007465787400000000626567696E20636F36
:104EC000757420776561746865720A0074656D7029
:104ED0006572617475726500626567696E20636FE3
:104EE00075742074656D70657261747572650A0001
:104EF0006C6173745F757064617465006265676985
:104F00006E20636F75742074696D650A000000007F
:104F10002A4300002DE9F0412DED0E8B05460C468D
:104F20009FED660BB0EE408AF0EE608A9FED650B58
:104F3000B0EE40AAF0EE60AA9FED600BB0EE409A92
:104F4000F0EE609A0026012720782D2806D19FEDEB
:104F50005F0BB0EE40AAF0EE60AA641C2078302807
:104F600000D1641C2078312821DB207839281EDC10
:104F700000BF14F8011BA1F1300002F00AFD41EC62
:104F80001B0B9FED540B53EC102B51EC180B02F044
:104F900053FD41EC1C0B53EC1B2B02F07BFA41EC54
:104FA000180B2078302802DB20783928E1DD2078C2
:104FB0002E282FD1607830282CDB6078392829DC26
:104FC000641C00BF14F8011BA1F1300002F0E1FCE9
:104FD00041EC1B0B9FED3F0B53EC102B51EC180BCE
:104FE00002F02AFD41EC1C0B53EC1B2B02F052FA91
:104FF00041EC180B9FED330B53EC102B51EC190BBC
:1050000002F026FF41EC190B2078302802DB2078D3
:105010003928D7DD2078652802D02078452819D195
:10502000641C20782B2801D1641C05E020782D28F1
:1050300002D14FF0FF37641C06E014F8010B303842
:1050400006EB860100EB41062078302802DB207851
:105050003928F2DD06FB07F002F09BFC41EC1E0B49
:1050600053EC192B02F016FA41EC1D0BB0EE4D1A61
:10507000F0EE6D1A9FED170BFEF7EAF8B0EE40BAAE
:10508000F0EE60BA53EC182B51EC1A0B02F0D4FC82
:1050900041EC1C0B53EC1B2B02F0CEFC41EC180B2B
:1050A00085ED068B51EC180B02F044FC686103207F
:1050B000E8602046BDEC0E8BBDE8F08100000000EA
:1050C00000000000000000000000F03F00000000B1
:1050D0000000F0BF00000000000024402DE9F04770
:1050E00006460C4620787B2804D040480460002007
:1050F000BDE8F0870620F060601C00F0A6FF0446C3
:1051000020787D2801D1601CF2E7FFF7F3F805460F
:10511000B060B06808B90020EAE7204600F095FFCB
:1051200080464146284600F063F8074600F08DFFB0
:1051300004460CB90020DBE72869286200202861BA
:1051400020783A2803D0294804600020D0E7601C6A
:1051500000F07BFF80464146284600F02FF90746C5
:1051600000F073FF04460CB90020C1E731E0FFF7FF
:10517000C1F8070000D1BBE72F607D603D46601C91
:1051800000F063FF81464946284600F031F880462A
:1051900000F05BFF04460CB90020A9E728692862EB
:1051A0000020286120783A2803D0104804600020AD
:1051B0009EE7601C00F049FF81464946284600F002
:1051C000FDF8804600F041FF04460CB900208FE74F
:1051D00000BF20782C28CAD020787D2801D1601CFF
:1051E00086E702480460002082E7000024000020D7
:1051F0002DE9F05F8346884608F10104002798F8FE
:105200000000222805D06A48C0F800800020BDE8D0
:10521000F09F04E014F8011B5C2900D1641C207885
:10522000222804D0207810B1781C0700F2D1781C15
:105230006049096888478146B9F1000F01D1002013
:10524000E5E708F101044D469EE020785C2804D093
:1052500014F8010B05F8010B96E0641C2078722805
:1052600018D006DC622809D066280BD06E287DD1C4
:105270000CE0742812D07528F9D113E0082005F845
:10528000010B7FE00C2005F8010B7BE00A2005F8FC
:10529000010B77E00D2005F8010B73E0092005F8FC
:1052A000010B6FE0601CFFF70FFC0646241DB6F5EE
:1052B0005C4F02D3B6F5604F00D306B962E0B6F595
:1052C000584F1CD3B6F55C4F19D260785C2802D1D8
:1052D000A078752800D055E0E01CFFF7F5FB82466A
:1052E000A41DBAF55C4F02D3BAF5604F00D349E074
:1052F000C6F30901504661F39F2000F5803604276C
:10530000802E01D2012708E0B6F5006F01D20227F6
:1053100003E0B6F5803F00D203273D44012F20D0A3
:10532000022F15D0032F0AD0042F24D106F0BF007E
:1053300040F08001681E05460170B60900BF06F006
:10534000BF0040F08001681E05460170B60900BF2D
:1053500006F0BF0040F08001681E05460170B609E6
:1053600000BF1548C05D3043C1B200E006E0681ED2
:105370000546017000BF00BF3D4403E0207805F8FA
:10538000010B00BF00BF641C2078222803D02078C6
:1053900000287FF45AAF002028702078222800D1FE
:1053A000641CCBF810900420CBF80C0020462EE7AC
:1053B00024000020280000201282000870B5054655
:1053C0000C460CB9002070BD042224A12046FBF736
:1053D00010FA18B90220E860201DF4E7052221A187
:1053E0002046FBF706FA18B90020E860601DEAE7DE
:1053F00004221EA12046FBF7FCF920B90120E86039
:105400006861201DDFE72078222804D12146284644
:10541000FFF7EEFED7E720782D2805D0207830283A
:1054200007DB2078392804DC21462846FFF772FD87
:10543000C9E720785B2804D121462846FFF7EEFA19
:10544000C1E720787B2804D121462846FFF746FE95
:10545000B9E7084804600020B5E700006E756C6C81
:105460000000000066616C73650000007472756571
:1054700000000000240000200146491E41EA6101AD
:1054800041EAA10141EA211141EA212141EA2141F8
:10549000481C70472DE9FF4F85B092461E464FF0DD
:1054A000000B052003900598D0F80880D946002508
:1054B00000200290019003E009F10109D8F8008072
:1054C000B8F1000FF8D1B9F1000F16D12EB10321B8
:1054D0003046FFF763F8834604E003207E490968FD
:1054E00088478346BBF1000F03D07CA15846FBF7E9
:1054F0003DF9584609B0BDE8F08F002E57D0B56889
:1055000001213046FFF74AF804460CB90020F1E7C4
:105510005B202070B068401CB0600598D0F808800F
:105520002EE0334652460699491C404600F0F2FCF4
:10553000304600F04DFEB060D8F80000F0B1BAF18E
:10554000000F01D0022000E0012003900399491CC4
:105550003046FFF723F804460CB90020CAE72C2098
:1055600004F8010BBAF1000F02D0202004F8010B5F
:1055700000202070B16803980844B060D8F800801B
:10558000B8F1000F02D002980028CAD0022130469C
:10559000FFF704F804460CB90020ABE75D2004F8DF
:1055A000010B00202070306800EB050B91E04FEA02
:1055B000890049490968884707460FB9002099E7DB
:1055C0004FEA89013846FBF7F8F90598D0F80880CA
:1055D00021E0002352460699491C404600F09AFCFF
:1055E000049029466D1C049847F82100049870B176
:1055F0000498FBF7DFF8801CBAF1000F01D00121FD
:1056000000E00021014403980844039001E00120D8
:105610000290D8F80080B8F1000F02D0029800285C
:10562000D7D0029820B92C49039809688847834647
:10563000BBF1000F01D101200290029890B100252A
:1056400008E057F8250020B157F8250024490968DB
:1056500088476D1C4D45F4DB384621490968884769
:10566000002047E75B208BF800000BF101040020CD
:105670002070002521E057F82500FBF79BF80190EA
:1056800057F825102046019AFBF7FEF801980444CC
:10569000A9F10100A8420AD02C2004F8010BBAF1AC
:1056A000000F02D0202004F8010B0020207057F8D2
:1056B00025000B49096888476D1C4D45DBDB3846E2
:1056C0000749096888475D2004F8010B002004F8A9
:1056D000010B58460EE70000280000205B5D00002B
:1056E0002C00002070B52DED088B06460C460025D9
:1056F00096ED060BB0EE408AF0EE608A9FED710BDE
:1057000053EC102B51EC180B02F0D8F811D12CB13E
:1057100002212046FEF742FF054604E002206B49C5
:10572000096888470546002D02D069A000882880B6
:10573000C3E0706902F02DF941EC1B0B53EC182B00
:1057400002F086FB41EC1A0BB0EE4A0AF0EE6A0A50
:10575000FDF7E7FCB0EE409AF0EE609A9FED5D0B2E
:1057600053EC102B51EC190B02F02AF925D89FEDC0
:105770005B0B53EC102B51EC180B02F021F91CD8E9
:105780009FED580B53EC102B51EC180B02F052FA12
:1057900013D82CB115212046FEF700FF054604E082
:1057A00015204A49096888470546002D04D04FA1B5
:1057B00028467269FAF7FAFD7FE02CB140212046B5
:1057C000FEF7ECFE054604E04020404909688847A2
:1057D0000546002D71D0B0EE480AF0EE680AFDF7DC
:1057E000ABFCB0EE40BAF0EE60BA53EC182B51ECC3
:1057F0001B0B02F02DFB41EC1A0BB0EE4A0AF0EE47
:105800006A0AFDF78EFCB0EE409AF0EE609A9FEDCA
:10581000310B53EC102B51EC190B02F0D1F819D8C5
:10582000B0EE480AF0EE680AFDF77BFCB0EE409A55
:10583000F0EE609A9FED2E0B53EC102B51EC190BF0
:1058400002F0BEF806D253EC182B2BA12846FAF72B
:10585000ADFD32E0B0EE480AF0EE680AFDF761FCFB
:10586000B0EE409AF0EE609A9FED250B53EC102BB2
:1058700051EC190B02F0A4F812D3B0EE480AF0EE86
:10588000680AFDF74EFCB0EE409AF0EE609A9FED8C
:105890001E0B53EC102B51EC190B02F0CBF906D276
:1058A00053EC182B1AA12846FAF780FD05E053ECBB
:1058B000182B18A12846FAF779FD2846BDEC088B6D
:1058C00070BD000000000000000000002800002063
:1058D00030000000000000000000B03C0000C0FFED
:1058E000FFFFDF41000000000000E0C12564000070
:1058F00044F3C2E4E4E9634C252E30660000000066
:105900008DEDB5A0F7C6B03E0000000065CDCD41DD
:1059100025650000256600002DE9FF4F89B0884607
:1059200016461F4600200890079006904FF0070A81
:1059300000250998D0F8089000200290019000906E
:1059400004E00298401C0290D9F80090B9F1000FD1
:10595000F7D10298002835D157B116B108F10400EB
:1059600000E0032001463846FEF718FE069009E0E5
:1059700016B108F1040100E003210846EA4909686C
:1059800088470690069818B900200DB0BDE8F08F42
:10599000069C7B2004F8010B66B10A2004F8010B79
:1059A000002503E0092004F8010B6D1CA8F101009B
:1059B000A842F7DC7D2004F8010B002004F8010B5D
:1059C0000698E2E7002F77D0BD680EB1022000E014
:1059D000012082460AF101013846FEF7DFFD044648
:1059E0000CB90020D1E77B2004F8010B16B10A2086
:1059F00004F8010B00202070B8685044B860099882
:105A0000D0F8089008F1010868E0B6B14146384680
:105A1000FEF7C4FD04460CB90020B6E70020039051
:105A200005E0092004F8010B0398401C039003983B
:105A30004045F6DBB8684044B8603946D9F82000E4
:105A400000F07EF9384600F0C3FBB8600EB10220CA
:105A500000E00120824651463846FEF79FFD04468D
:105A60000CB9002091E73A2004F8010B16B1092087
:105A700004F8010BB8685044B8603B4632464146D2
:105A8000484600F047FA384600F0A2FBB8600EB175
:105A9000012000E00020D9F8001009B1012100E048
:105AA000002100EB010A0AF101013846FEF776FDFC
:105AB000044614B9002068E734E0D9F8000010B1BA
:105AC0002C2004F8010B16B10A2004F8010B002069
:105AD0002070B8685044B860D9F80090B9F1000F50
